{"abi":[{"type":"function","name":"allIds","inputs":[{"name":"","type":"uint256","internalType":"uint256"}],"outputs":[{"name":"","type":"bytes32","internalType":"bytes32"}],"stateMutability":"view"},{"type":"function","name":"getPendingRequests","inputs":[],"outputs":[{"name":"txHashes","type":"bytes32[]","internalType":"bytes32[]"},{"name":"srcDomains","type":"uint32[]","internalType":"uint32[]"}],"stateMutability":"view"},{"type":"function","name":"markCompleted","inputs":[{"name":"burnTxHash","type":"bytes32","internalType":"bytes32"}],"outputs":[],"stateMutability":"nonpayable"},{"type":"function","name":"register","inputs":[{"name":"burnTxHash","type":"bytes32","internalType":"bytes32"},{"name":"srcDomain","type":"uint32","internalType":"uint32"},{"name":"dstDomain","type":"uint32","internalType":"uint32"},{"name":"amount","type":"uint256","internalType":"uint256"}],"outputs":[],"stateMutability":"nonpayable"},{"type":"function","name":"requests","inputs":[{"name":"","type":"bytes32","internalType":"bytes32"}],"outputs":[{"name":"burnTxHash","type":"bytes32","internalType":"bytes32"},{"name":"srcDomain","type":"uint32","internalType":"uint32"},{"name":"dstDomain","type":"uint32","internalType":"uint32"},{"name":"sender","type":"address","internalType":"address"},{"name":"amount","type":"uint256","internalType":"uint256"},{"name":"completed","type":"bool","internalType":"bool"},{"name":"createdAt","type":"uint256","internalType":"uint256"}],"stateMutability":"view"},{"type":"function","name":"totalRequests","inputs":[],"outputs":[{"name":"","type":"uint256","internalType":"uint256"}],"stateMutability":"view"},{"type":"event","name":"RequestCompleted","inputs":[{"name":"burnTxHash","type":"bytes32","indexed":true,"internalType":"bytes32"}],"anonymous":false},{"type":"event","name":"RequestRegistered","inputs":[{"name":"burnTxHash","type":"bytes32","indexed":true,"internalType":"bytes32"},{"name":"sender","type":"address","indexed":true,"internalType":"address"},{"name":"srcDomain","type":"uint32","indexed":false,"internalType":"uint32"},{"name":"dstDomain","type":"uint32","indexed":false,"internalType":"uint32"},{"name":"amount","type":"uint256","indexed":false,"internalType":"uint256"}],"anonymous":false}],"bytecode":{"object":"0x608060405234801561000f575f80fd5b50610da48061001d5f395ff3fe608060405234801561000f575f80fd5b5060043610610060575f3560e01c80635eda952114610064578063692776ea146100805780636b869f9a146100b057806380a1f712146100cc5780638aea61dc146100eb5780639d86698514610109575b5f80fd5b61007e600480360381019061007991906107a1565b61013f565b005b61009a60048036038101906100959190610805565b61034c565b6040516100a7919061083f565b60405180910390f35b6100ca60048036038101906100c59190610858565b61036c565b005b6100d461047c565b6040516100e29291906109f1565b60405180910390f35b6100f361066a565b6040516101009190610a35565b60405180910390f35b610123600480360381019061011e9190610858565b610676565b6040516101369796959493929190610ab6565b60405180910390f35b5f805f8681526020019081526020015f206004015414610194576040517f08c379a000000000000000000000000000000000000000000000000000000000815260040161018b90610b7d565b60405180910390fd5b6040518060e001604052808581526020018463ffffffff1681526020018363ffffffff1681526020013373ffffffffffffffffffffffffffffffffffffffff1681526020018281526020015f15158152602001428152505f808681526020019081526020015f205f820151815f01556020820151816001015f6101000a81548163ffffffff021916908363ffffffff16021790555060408201518160010160046101000a81548163ffffffff021916908363ffffffff16021790555060608201518160010160086101000a81548173ffffffffffffffffffffffffffffffffffffffff021916908373ffffffffffffffffffffffffffffffffffffffff1602179055506080820151816002015560a0820151816003015f6101000a81548160ff02191690831515021790555060c08201518160040155905050600184908060018154018082558091505060019003905f5260205f20015f90919091909150553373ffffffffffffffffffffffffffffffffffffffff16847f1b42ead7a36984fbbd07083582b4ab3ecff3114075225bb36836be6fbb1f2ea485858560405161033e93929190610b9b565b60405180910390a350505050565b6001818154811061035b575f80fd5b905f5260205f20015f915090505481565b5f805f8381526020019081526020015f2060040154036103c1576040517f08c379a00000000000000000000000000000000000000000000000000000000081526004016103b890610c1a565b60405180910390fd5b5f808281526020019081526020015f206003015f9054906101000a900460ff1615610421576040517f08c379a000000000000000000000000000000000000000000000000000000000815260040161041890610c82565b60405180910390fd5b60015f808381526020019081526020015f206003015f6101000a81548160ff021916908315150217905550807f03442af529c92a1449dcf9997323ccb9f819ab9b1e29ac10b82e45e809ecf11b60405160405180910390a250565b6060805f60018054905090505f805b828110156104ef575f80600183815481106104a9576104a8610ca0565b5b905f5260205f20015481526020019081526020015f206003015f9054906101000a900460ff166104e25781806104de90610cfa565b9250505b808060010191505061048b565b508067ffffffffffffffff81111561050a57610509610d41565b5b6040519080825280602002602001820160405280156105385781602001602082028036833780820191505090505b5093508067ffffffffffffffff81111561055557610554610d41565b5b6040519080825280602002602001820160405280156105835781602001602082028036833780820191505090505b5092505f805b83811015610662575f600182815481106105a6576105a5610ca0565b5b905f5260205f20015490505f808281526020019081526020015f206003015f9054906101000a900460ff1661065457808784815181106105e9576105e8610ca0565b5b6020026020010181815250505f808281526020019081526020015f206001015f9054906101000a900463ffffffff1686848151811061062b5761062a610ca0565b5b602002602001019063ffffffff16908163ffffffff1681525050828061065090610cfa565b9350505b508080600101915050610589565b505050509091565b5f600180549050905090565b5f602052805f5260405f205f91509050805f015490806001015f9054906101000a900463ffffffff16908060010160049054906101000a900463ffffffff16908060010160089054906101000a900473ffffffffffffffffffffffffffffffffffffffff1690806002015490806003015f9054906101000a900460ff16908060040154905087565b5f80fd5b5f819050919050565b61071481610702565b811461071e575f80fd5b50565b5f8135905061072f8161070b565b92915050565b5f63ffffffff82169050919050565b61074d81610735565b8114610757575f80fd5b50565b5f8135905061076881610744565b92915050565b5f819050919050565b6107808161076e565b811461078a575f80fd5b50565b5f8135905061079b81610777565b92915050565b5f805f80608085870312156107b9576107b86106fe565b5b5f6107c687828801610721565b94505060206107d78782880161075a565b93505060406107e88782880161075a565b92505060606107f98782880161078d565b91505092959194509250565b5f6020828403121561081a576108196106fe565b5b5f6108278482850161078d565b91505092915050565b61083981610702565b82525050565b5f6020820190506108525f830184610830565b92915050565b5f6020828403121561086d5761086c6106fe565b5b5f61087a84828501610721565b91505092915050565b5f81519050919050565b5f82825260208201905092915050565b5f819050602082019050919050565b6108b581610702565b82525050565b5f6108c683836108ac565b60208301905092915050565b5f602082019050919050565b5f6108e882610883565b6108f2818561088d565b93506108fd8361089d565b805f5b8381101561092d57815161091488826108bb565b975061091f836108d2565b925050600181019050610900565b5085935050505092915050565b5f81519050919050565b5f82825260208201905092915050565b5f819050602082019050919050565b61096c81610735565b82525050565b5f61097d8383610963565b60208301905092915050565b5f602082019050919050565b5f61099f8261093a565b6109a98185610944565b93506109b483610954565b805f5b838110156109e45781516109cb8882610972565b97506109d683610989565b9250506001810190506109b7565b5085935050505092915050565b5f6040820190508181035f830152610a0981856108de565b90508181036020830152610a1d8184610995565b90509392505050565b610a2f8161076e565b82525050565b5f602082019050610a485f830184610a26565b92915050565b610a5781610735565b82525050565b5f73ffffffffffffffffffffffffffffffffffffffff82169050919050565b5f610a8682610a5d565b9050919050565b610a9681610a7c565b82525050565b5f8115159050919050565b610ab081610a9c565b82525050565b5f60e082019050610ac95f83018a610830565b610ad66020830189610a4e565b610ae36040830188610a4e565b610af06060830187610a8d565b610afd6080830186610a26565b610b0a60a0830185610aa7565b610b1760c0830184610a26565b98975050505050505050565b5f82825260208201905092915050565b7f416c7265616479207265676973746572656400000000000000000000000000005f82015250565b5f610b67601283610b23565b9150610b7282610b33565b602082019050919050565b5f6020820190508181035f830152610b9481610b5b565b9050919050565b5f606082019050610bae5f830186610a4e565b610bbb6020830185610a4e565b610bc86040830184610a26565b949350505050565b7f4e6f7420666f756e6400000000000000000000000000000000000000000000005f82015250565b5f610c04600983610b23565b9150610c0f82610bd0565b602082019050919050565b5f6020820190508181035f830152610c3181610bf8565b9050919050565b7f416c726561647920636f6d706c657465640000000000000000000000000000005f82015250565b5f610c6c601183610b23565b9150610c7782610c38565b602082019050919050565b5f6020820190508181035f830152610c9981610c60565b9050919050565b7f4e487b71000000000000000000000000000000000000000000000000000000005f52603260045260245ffd5b7f4e487b71000000000000000000000000000000000000000000000000000000005f52601160045260245ffd5b5f610d048261076e565b91507fffffffffffffffffffffffffffffffffffffffffffffffffffffffffffffffff8203610d3657610d35610ccd565b5b600182019050919050565b7f4e487b71000000000000000000000000000000000000000000000000000000005f52604160045260245ffdfea2646970667358221220f1aa132eb6d9776fbe480b3096e8be462128ecab5604cfe3295967ee503d069a64736f6c63430008180033","linkReferences":{}},"methodIdentifiers":{"allIds(uint256)":"692776ea","getPendingRequests()":"80a1f712","markCompleted(bytes32)":"6b869f9a","register(bytes32,uint32,uint32,uint256)":"5eda9521","requests(bytes32)":"9d866985","totalRequests()":"8aea61dc"},"id":16}